{
  "contractName": "BreakContinue",
  "abi": [
    {
      "inputs": [
        {
          "internalType": "uint256",
          "name": "",
          "type": "uint256"
        }
      ],
      "name": "data",
      "outputs": [
        {
          "internalType": "uint256",
          "name": "",
          "type": "uint256"
        }
      ],
      "stateMutability": "view",
      "type": "function"
    },
    {
      "inputs": [],
      "name": "breakFun",
      "outputs": [
        {
          "internalType": "uint256[]",
          "name": "",
          "type": "uint256[]"
        }
      ],
      "stateMutability": "nonpayable",
      "type": "function"
    },
    {
      "inputs": [],
      "name": "continueFun",
      "outputs": [
        {
          "internalType": "uint256[]",
          "name": "",
          "type": "uint256[]"
        }
      ],
      "stateMutability": "nonpayable",
      "type": "function"
    }
  ],
  "bytecode": "0x60806040525f60015f6101000a81548160ff021916908360ff160217905550348015610029575f80fd5b5061045b806100375f395ff3fe608060405234801561000f575f80fd5b506004361061003f575f3560e01c80632510ec4414610043578063b0c5fd7414610061578063f0ba84401461007f575b5f80fd5b61004b6100af565b60405161005891906102dc565b60405180910390f35b610069610152565b60405161007691906102dc565b60405180910390f35b6100996004803603810190610094919061032a565b6101fd565b6040516100a69190610364565b60405180910390f35b60605f5b60058110156100fe5760038103156100eb575f81908060018154018082558091505060019003905f5260205f20015f90919091909150555b80806100f6906103aa565b9150506100b3565b505f80548060200260200160405190810160405280929190818152602001828054801561014857602002820191905f5260205f20905b815481526020019060010190808311610134575b5050505050905090565b60605f5b60058160ff1610156101a95760038160ff1603156101a9575f81908060018154018082558091505060019003905f5260205f20015f909160ff1690919091505580806101a1906103fd565b915050610156565b505f8054806020026020016040519081016040528092919081815260200182805480156101f357602002820191905f5260205f20905b8154815260200190600101908083116101df575b5050505050905090565b5f818154811061020b575f80fd5b905f5260205f20015f915090505481565b5f81519050919050565b5f82825260208201905092915050565b5f819050602082019050919050565b5f819050919050565b61025781610245565b82525050565b5f610268838361024e565b60208301905092915050565b5f602082019050919050565b5f61028a8261021c565b6102948185610226565b935061029f83610236565b805f5b838110156102cf5781516102b6888261025d565b97506102c183610274565b9250506001810190506102a2565b5085935050505092915050565b5f6020820190508181035f8301526102f48184610280565b905092915050565b5f80fd5b61030981610245565b8114610313575f80fd5b50565b5f8135905061032481610300565b92915050565b5f6020828403121561033f5761033e6102fc565b5b5f61034c84828501610316565b91505092915050565b61035e81610245565b82525050565b5f6020820190506103775f830184610355565b92915050565b7f4e487b71000000000000000000000000000000000000000000000000000000005f52601160045260245ffd5b5f6103b482610245565b91507fffffffffffffffffffffffffffffffffffffffffffffffffffffffffffffffff82036103e6576103e561037d565b5b600182019050919050565b5f60ff82169050919050565b5f610407826103f1565b915060ff820361041a5761041961037d565b5b60018201905091905056fea26469706673582212207fa8ae3ed3f02f4cb021c9a388476ab89bed71c051643341a72bb91d71b92ba364736f6c63430008140033",
  "immutableReferences": {},
  "source": "// SPDX-License-Identifier: MIT\npragma solidity >=0.4.22 <0.9.0;\n\ncontract ControlFlow {\n    uint[] public data;\n\n    function iteration() public returns (uint[] memory) {\n        for (uint i = 0; i < 5; i++) {\n            data.push(i);\n        }\n        return data;\n    }\n}\n\ncontract IfElse {\n    uint public i = 10;\n    bool public even;\n\n    function checkEvenOdd() public returns (bool) {\n        if (i % 2 == 0) {\n            even = true;\n        } else {\n            even = false;\n        }\n        return even;\n    }\n}\n\ncontract BreakContinue {\n    uint[] public data;\n    uint8 j = 0;\n\n    function breakFun() public returns (uint[] memory) {\n        for (uint8 i = 0; i < 5; i++) {\n            if (i == 3) {\n                break;\n            }\n            data.push(i);\n        }\n        return data;\n    }\n\n    function continueFun() public returns (uint[] memory) {\n        for (uint i = 0; i < 5; i++) {\n            if (i == 3) {\n                continue;\n            }\n            data.push(i);\n        }\n        return data;\n    }\n}\n",
  "sourcePath": "/Users/gulsherkhan/Desktop/solidity_prog/contracts/ControlFlow.sol",
  "compiler": {
    "name": "solc",
    "version": "0.8.20+commit.a1b79de6.Emscripten.clang"
  },
  "schemaVersion": "3.4.14",
  "updatedAt": "2023-08-01T19:13:11.848Z",
  "devdoc": {
    "kind": "dev",
    "methods": {},
    "version": 1
  },
  "userdoc": {
    "kind": "user",
    "methods": {},
    "version": 1
  }
}