{
  "contractName": "ControlFlow",
  "abi": [
    {
      "inputs": [
        {
          "internalType": "uint256",
          "name": "",
          "type": "uint256"
        }
      ],
      "name": "data",
      "outputs": [
        {
          "internalType": "uint256",
          "name": "",
          "type": "uint256"
        }
      ],
      "stateMutability": "view",
      "type": "function"
    },
    {
      "inputs": [],
      "name": "iteration",
      "outputs": [
        {
          "internalType": "uint256[]",
          "name": "",
          "type": "uint256[]"
        }
      ],
      "stateMutability": "nonpayable",
      "type": "function"
    }
  ],
  "bytecode": "0x608060405234801561000f575f80fd5b506103498061001d5f395ff3fe608060405234801561000f575f80fd5b5060043610610034575f3560e01c80630c0399a414610038578063f0ba844014610056575b5f80fd5b610040610086565b60405161004d91906101fe565b60405180910390f35b610070600480360381019061006b919061024c565b61011f565b60405161007d9190610286565b60405180910390f35b60605f5b60058110156100cb575f81908060018154018082558091505060019003905f5260205f20015f909190919091505580806100c3906102cc565b91505061008a565b505f80548060200260200160405190810160405280929190818152602001828054801561011557602002820191905f5260205f20905b815481526020019060010190808311610101575b5050505050905090565b5f818154811061012d575f80fd5b905f5260205f20015f915090505481565b5f81519050919050565b5f82825260208201905092915050565b5f819050602082019050919050565b5f819050919050565b61017981610167565b82525050565b5f61018a8383610170565b60208301905092915050565b5f602082019050919050565b5f6101ac8261013e565b6101b68185610148565b93506101c183610158565b805f5b838110156101f15781516101d8888261017f565b97506101e383610196565b9250506001810190506101c4565b5085935050505092915050565b5f6020820190508181035f83015261021681846101a2565b905092915050565b5f80fd5b61022b81610167565b8114610235575f80fd5b50565b5f8135905061024681610222565b92915050565b5f602082840312156102615761026061021e565b5b5f61026e84828501610238565b91505092915050565b61028081610167565b82525050565b5f6020820190506102995f830184610277565b92915050565b7f4e487b71000000000000000000000000000000000000000000000000000000005f52601160045260245ffd5b5f6102d682610167565b91507fffffffffffffffffffffffffffffffffffffffffffffffffffffffffffffffff82036103085761030761029f565b5b60018201905091905056fea26469706673582212204d952150ee27dacb105661eb1bab4a0137f6529210523c588e1cbf2424a9527164736f6c63430008140033",
  "immutableReferences": {},
  "source": "// SPDX-License-Identifier: MIT\npragma solidity >=0.4.22 <0.9.0;\n\ncontract ControlFlow {\n    uint[] public data;\n\n    function iteration() public returns (uint[] memory) {\n        for (uint i = 0; i < 5; i++) {\n            data.push(i);\n        }\n        return data;\n    }\n}\n\ncontract IfElse {\n    uint public i = 10;\n    bool public even;\n\n    function checkEvenOdd() public returns (bool) {\n        if (i % 2 == 0) {\n            even = true;\n        } else {\n            even = false;\n        }\n        return even;\n    }\n}\n",
  "sourcePath": "/Users/gulsherkhan/Desktop/solidity_prog/contracts/ControlFlow.sol",
  "compiler": {
    "name": "solc",
    "version": "0.8.20+commit.a1b79de6.Emscripten.clang"
  },
  "schemaVersion": "3.4.14",
  "updatedAt": "2023-07-26T10:31:29.825Z",
  "devdoc": {
    "kind": "dev",
    "methods": {},
    "version": 1
  },
  "userdoc": {
    "kind": "user",
    "methods": {},
    "version": 1
  }
}