{
  "contractName": "DataTypes",
  "abi": [
    {
      "inputs": [],
      "name": "add_val",
      "outputs": [
        {
          "internalType": "address",
          "name": "",
          "type": "address"
        }
      ],
      "stateMutability": "view",
      "type": "function"
    },
    {
      "inputs": [],
      "name": "boolValue",
      "outputs": [
        {
          "internalType": "bool",
          "name": "",
          "type": "bool"
        }
      ],
      "stateMutability": "view",
      "type": "function"
    },
    {
      "inputs": [],
      "name": "characters",
      "outputs": [
        {
          "internalType": "bytes",
          "name": "",
          "type": "bytes"
        }
      ],
      "stateMutability": "view",
      "type": "function"
    },
    {
      "inputs": [],
      "name": "int_val",
      "outputs": [
        {
          "internalType": "uint256",
          "name": "",
          "type": "uint256"
        }
      ],
      "stateMutability": "view",
      "type": "function"
    },
    {
      "inputs": [],
      "name": "name",
      "outputs": [
        {
          "internalType": "string",
          "name": "",
          "type": "string"
        }
      ],
      "stateMutability": "view",
      "type": "function"
    },
    {
      "inputs": [],
      "name": "Enum",
      "outputs": [
        {
          "internalType": "enum DataTypes.my_enum",
          "name": "",
          "type": "uint8"
        }
      ],
      "stateMutability": "pure",
      "type": "function"
    }
  ],
  "bytecode": "0x608060405260015f806101000a81548160ff021916908315150217905550600a6001556040518060400160405280600781526020017f47756c73686572000000000000000000000000000000000000000000000000008152506002908162000068919062000367565b506040518060400160405280600381526020017f616263000000000000000000000000000000000000000000000000000000000081525060039081620000af9190620004ad565b503360045f6101000a81548173ffffffffffffffffffffffffffffffffffffffff021916908373ffffffffffffffffffffffffffffffffffffffff160217905550348015620000fc575f80fd5b5062000591565b5f81519050919050565b7f4e487b71000000000000000000000000000000000000000000000000000000005f52604160045260245ffd5b7f4e487b71000000000000000000000000000000000000000000000000000000005f52602260045260245ffd5b5f60028204905060018216806200017f57607f821691505b6020821081036200019557620001946200013a565b5b50919050565b5f819050815f5260205f209050919050565b5f6020601f8301049050919050565b5f82821b905092915050565b5f60088302620001f97fffffffffffffffffffffffffffffffffffffffffffffffffffffffffffffffff82620001bc565b620002058683620001bc565b95508019841693508086168417925050509392505050565b5f819050919050565b5f819050919050565b5f6200024f6200024962000243846200021d565b62000226565b6200021d565b9050919050565b5f819050919050565b6200026a836200022f565b62000282620002798262000256565b848454620001c8565b825550505050565b5f90565b620002986200028a565b620002a58184846200025f565b505050565b5b81811015620002cc57620002c05f826200028e565b600181019050620002ab565b5050565b601f8211156200031b57620002e5816200019b565b620002f084620001ad565b8101602085101562000300578190505b620003186200030f85620001ad565b830182620002aa565b50505b505050565b5f82821c905092915050565b5f6200033d5f198460080262000320565b1980831691505092915050565b5f6200035783836200032c565b9150826002028217905092915050565b620003728262000103565b67ffffffffffffffff8111156200038e576200038d6200010d565b5b6200039a825462000167565b620003a7828285620002d0565b5f60209050601f831160018114620003dd575f8415620003c8578287015190505b620003d485826200034a565b86555062000443565b601f198416620003ed866200019b565b5f5b828110156200041657848901518255600182019150602085019450602081019050620003ef565b8683101562000436578489015162000432601f8916826200032c565b8355505b6001600288020188555050505b505050505050565b5f819050815f5260205f209050919050565b601f821115620004a85762000472816200044b565b6200047d84620001ad565b810160208510156200048d578190505b620004a56200049c85620001ad565b830182620002aa565b50505b505050565b620004b88262000103565b67ffffffffffffffff811115620004d457620004d36200010d565b5b620004e0825462000167565b620004ed8282856200045d565b5f60209050601f83116001811462000523575f84156200050e578287015190505b6200051a85826200034a565b86555062000589565b601f19841662000533866200044b565b5f5b828110156200055c5784890151825560018201915060208501945060208101905062000535565b868310156200057c578489015162000578601f8916826200032c565b8355505b6001600288020188555050505b505050505050565b610566806200059f5f395ff3fe608060405234801561000f575f80fd5b5060043610610060575f3560e01c806306fdde031461006457806393af578d14610082578063acddfc33146100a0578063b404904b146100be578063d070bb54146100dc578063d2d47667146100fa575b5f80fd5b61006c610118565b60405161007991906102f9565b60405180910390f35b61008a6101a4565b6040516100979190610333565b60405180910390f35b6100a86101b4565b6040516100b59190610364565b60405180910390f35b6100c66101ba565b6040516100d391906103bc565b60405180910390f35b6100e46101df565b6040516100f19190610427565b60405180910390f35b61010261026b565b60405161010f91906104ba565b60405180910390f35b6002805461012590610500565b80601f016020809104026020016040519081016040528092919081815260200182805461015190610500565b801561019c5780601f106101735761010080835404028352916020019161019c565b820191905f5260205f20905b81548152906001019060200180831161017f57829003601f168201915b505050505081565b5f8054906101000a900460ff1681565b60015481565b60045f9054906101000a900473ffffffffffffffffffffffffffffffffffffffff1681565b600380546101ec90610500565b80601f016020809104026020016040519081016040528092919081815260200182805461021890610500565b80156102635780601f1061023a57610100808354040283529160200191610263565b820191905f5260205f20905b81548152906001019060200180831161024657829003601f168201915b505050505081565b5f90565b5f81519050919050565b5f82825260208201905092915050565b5f5b838110156102a657808201518184015260208101905061028b565b5f8484015250505050565b5f601f19601f8301169050919050565b5f6102cb8261026f565b6102d58185610279565b93506102e5818560208601610289565b6102ee816102b1565b840191505092915050565b5f6020820190508181035f83015261031181846102c1565b905092915050565b5f8115159050919050565b61032d81610319565b82525050565b5f6020820190506103465f830184610324565b92915050565b5f819050919050565b61035e8161034c565b82525050565b5f6020820190506103775f830184610355565b92915050565b5f73ffffffffffffffffffffffffffffffffffffffff82169050919050565b5f6103a68261037d565b9050919050565b6103b68161039c565b82525050565b5f6020820190506103cf5f8301846103ad565b92915050565b5f81519050919050565b5f82825260208201905092915050565b5f6103f9826103d5565b61040381856103df565b9350610413818560208601610289565b61041c816102b1565b840191505092915050565b5f6020820190508181035f83015261043f81846103ef565b905092915050565b7f4e487b71000000000000000000000000000000000000000000000000000000005f52602160045260245ffd5b6002811061048557610484610447565b5b50565b5f81905061049582610474565b919050565b5f6104a482610488565b9050919050565b6104b48161049a565b82525050565b5f6020820190506104cd5f8301846104ab565b92915050565b7f4e487b71000000000000000000000000000000000000000000000000000000005f52602260045260245ffd5b5f600282049050600182168061051757607f821691505b60208210810361052a576105296104d3565b5b5091905056fea264697066735822122059fd79d77246fcdd00ff9f75f12227975a60952f5d34927eb5662d835a6c62e664736f6c63430008140033",
  "immutableReferences": {},
  "source": "// SPDX-License-Identifier: MIT\npragma solidity >=0.4.22 <0.9.0;\n\ncontract DataTypes {\n  bool public boolValue = true; //\n  uint public int_val = 10;//\n  string public name = \"Gulsher\";\n  bytes public characters = \"abc\";\n  address public add_val = msg.sender;\n  enum my_enum {_intellect, _developer}\n\n  function Enum() public pure returns(my_enum){\n    return my_enum._intellect;\n  }\n}\n",
  "sourcePath": "/Users/gulsherkhan/Desktop/solidity_prog/contracts/DataTypes.sol",
  "compiler": {
    "name": "solc",
    "version": "0.8.20+commit.a1b79de6.Emscripten.clang"
  },
  "schemaVersion": "3.4.14",
  "updatedAt": "2023-07-26T10:13:34.025Z",
  "devdoc": {
    "kind": "dev",
    "methods": {},
    "version": 1
  },
  "userdoc": {
    "kind": "user",
    "methods": {},
    "version": 1
  }
}