{
  "contractName": "DataTypes",
  "abi": [
    {
      "inputs": [],
      "name": "boolValue",
      "outputs": [
        {
          "internalType": "bool",
          "name": "",
          "type": "bool"
        }
      ],
      "stateMutability": "view",
      "type": "function"
    },
    {
      "inputs": [],
      "name": "characters",
      "outputs": [
        {
          "internalType": "bytes",
          "name": "",
          "type": "bytes"
        }
      ],
      "stateMutability": "view",
      "type": "function"
    },
    {
      "inputs": [],
      "name": "int_val",
      "outputs": [
        {
          "internalType": "uint256",
          "name": "",
          "type": "uint256"
        }
      ],
      "stateMutability": "view",
      "type": "function"
    },
    {
      "inputs": [],
      "name": "name",
      "outputs": [
        {
          "internalType": "string",
          "name": "",
          "type": "string"
        }
      ],
      "stateMutability": "view",
      "type": "function"
    },
    {
      "inputs": [],
      "name": "Enum",
      "outputs": [
        {
          "internalType": "enum DataTypes.my_enum",
          "name": "",
          "type": "uint8"
        }
      ],
      "stateMutability": "pure",
      "type": "function"
    }
  ],
  "bytecode": "0x608060405260015f806101000a81548160ff021916908315150217905550600a6001556040518060400160405280600781526020017f47756c73686572000000000000000000000000000000000000000000000000008152506002908162000068919062000327565b506040518060400160405280600381526020017f616263000000000000000000000000000000000000000000000000000000000081525060039081620000af91906200046d565b50348015620000bc575f80fd5b5062000551565b5f81519050919050565b7f4e487b71000000000000000000000000000000000000000000000000000000005f52604160045260245ffd5b7f4e487b71000000000000000000000000000000000000000000000000000000005f52602260045260245ffd5b5f60028204905060018216806200013f57607f821691505b602082108103620001555762000154620000fa565b5b50919050565b5f819050815f5260205f209050919050565b5f6020601f8301049050919050565b5f82821b905092915050565b5f60088302620001b97fffffffffffffffffffffffffffffffffffffffffffffffffffffffffffffffff826200017c565b620001c586836200017c565b95508019841693508086168417925050509392505050565b5f819050919050565b5f819050919050565b5f6200020f620002096200020384620001dd565b620001e6565b620001dd565b9050919050565b5f819050919050565b6200022a83620001ef565b62000242620002398262000216565b84845462000188565b825550505050565b5f90565b620002586200024a565b620002658184846200021f565b505050565b5b818110156200028c57620002805f826200024e565b6001810190506200026b565b5050565b601f821115620002db57620002a5816200015b565b620002b0846200016d565b81016020851015620002c0578190505b620002d8620002cf856200016d565b8301826200026a565b50505b505050565b5f82821c905092915050565b5f620002fd5f1984600802620002e0565b1980831691505092915050565b5f620003178383620002ec565b9150826002028217905092915050565b6200033282620000c3565b67ffffffffffffffff8111156200034e576200034d620000cd565b5b6200035a825462000127565b6200036782828562000290565b5f60209050601f8311600181146200039d575f841562000388578287015190505b6200039485826200030a565b86555062000403565b601f198416620003ad866200015b565b5f5b82811015620003d657848901518255600182019150602085019450602081019050620003af565b86831015620003f65784890151620003f2601f891682620002ec565b8355505b6001600288020188555050505b505050505050565b5f819050815f5260205f209050919050565b601f821115620004685762000432816200040b565b6200043d846200016d565b810160208510156200044d578190505b620004656200045c856200016d565b8301826200026a565b50505b505050565b6200047882620000c3565b67ffffffffffffffff811115620004945762000493620000cd565b5b620004a0825462000127565b620004ad8282856200041d565b5f60209050601f831160018114620004e3575f8415620004ce578287015190505b620004da85826200030a565b86555062000549565b601f198416620004f3866200040b565b5f5b828110156200051c57848901518255600182019150602085019450602081019050620004f5565b868310156200053c578489015162000538601f891682620002ec565b8355505b6001600288020188555050505b505050505050565b6104c0806200055f5f395ff3fe608060405234801561000f575f80fd5b5060043610610055575f3560e01c806306fdde031461005957806393af578d14610077578063acddfc3314610095578063d070bb54146100b3578063d2d47667146100d1575b5f80fd5b6100616100ef565b60405161006e91906102ab565b60405180910390f35b61007f61017b565b60405161008c91906102e5565b60405180910390f35b61009d61018b565b6040516100aa9190610316565b60405180910390f35b6100bb610191565b6040516100c89190610381565b60405180910390f35b6100d961021d565b6040516100e69190610414565b60405180910390f35b600280546100fc9061045a565b80601f01602080910402602001604051908101604052809291908181526020018280546101289061045a565b80156101735780601f1061014a57610100808354040283529160200191610173565b820191905f5260205f20905b81548152906001019060200180831161015657829003601f168201915b505050505081565b5f8054906101000a900460ff1681565b60015481565b6003805461019e9061045a565b80601f01602080910402602001604051908101604052809291908181526020018280546101ca9061045a565b80156102155780601f106101ec57610100808354040283529160200191610215565b820191905f5260205f20905b8154815290600101906020018083116101f857829003601f168201915b505050505081565b5f90565b5f81519050919050565b5f82825260208201905092915050565b5f5b8381101561025857808201518184015260208101905061023d565b5f8484015250505050565b5f601f19601f8301169050919050565b5f61027d82610221565b610287818561022b565b935061029781856020860161023b565b6102a081610263565b840191505092915050565b5f6020820190508181035f8301526102c38184610273565b905092915050565b5f8115159050919050565b6102df816102cb565b82525050565b5f6020820190506102f85f8301846102d6565b92915050565b5f819050919050565b610310816102fe565b82525050565b5f6020820190506103295f830184610307565b92915050565b5f81519050919050565b5f82825260208201905092915050565b5f6103538261032f565b61035d8185610339565b935061036d81856020860161023b565b61037681610263565b840191505092915050565b5f6020820190508181035f8301526103998184610349565b905092915050565b7f4e487b71000000000000000000000000000000000000000000000000000000005f52602160045260245ffd5b600281106103df576103de6103a1565b5b50565b5f8190506103ef826103ce565b919050565b5f6103fe826103e2565b9050919050565b61040e816103f4565b82525050565b5f6020820190506104275f830184610405565b92915050565b7f4e487b71000000000000000000000000000000000000000000000000000000005f52602260045260245ffd5b5f600282049050600182168061047157607f821691505b6020821081036104845761048361042d565b5b5091905056fea2646970667358221220e5eeb5b8bc5e75be4a0ded6feec213c8967b2f56f615261eb974d3e59dd2f61764736f6c63430008140033",
  "immutableReferences": {},
  "source": "// SPDX-License-Identifier: MIT\npragma solidity >=0.4.22 <0.9.0;\n\ncontract DataTypes {\n  bool public boolValue = true; //\n  uint public int_val = 10;//\n  string public name = \"Gulsher\";\n  bytes public characters = \"abc\";\n  enum my_enum {_intellect, _developer}\n\n  function Enum() public pure returns(my_enum){\n    return my_enum._intellect;\n  }\n}\n",
  "sourcePath": "/Users/gulsherkhan/Desktop/solidity_prog/contracts/DataTypes.sol",
  "compiler": {
    "name": "solc",
    "version": "0.8.20+commit.a1b79de6.Emscripten.clang"
  },
  "schemaVersion": "3.4.14",
  "updatedAt": "2023-07-25T06:47:09.232Z",
  "devdoc": {
    "kind": "dev",
    "methods": {},
    "version": 1
  },
  "userdoc": {
    "kind": "user",
    "methods": {},
    "version": 1
  }
}