{
  "contractName": "DerivedContract",
  "abi": [
    {
      "inputs": [],
      "name": "getPrivateVar",
      "outputs": [
        {
          "internalType": "uint256",
          "name": "",
          "type": "uint256"
        }
      ],
      "stateMutability": "view",
      "type": "function"
    },
    {
      "inputs": [],
      "name": "name",
      "outputs": [
        {
          "internalType": "string",
          "name": "",
          "type": "string"
        }
      ],
      "stateMutability": "view",
      "type": "function"
    },
    {
      "inputs": [],
      "name": "publicVar",
      "outputs": [
        {
          "internalType": "uint256",
          "name": "",
          "type": "uint256"
        }
      ],
      "stateMutability": "view",
      "type": "function"
    },
    {
      "inputs": [],
      "name": "getInternalVar",
      "outputs": [
        {
          "internalType": "uint256",
          "name": "",
          "type": "uint256"
        }
      ],
      "stateMutability": "view",
      "type": "function"
    }
  ],
  "bytecode": "0x608060405260015f55600260015560036002556040518060400160405280600781526020017f47756c73686572000000000000000000000000000000000000000000000000008152506003908161005691906102a2565b50348015610062575f80fd5b50610371565b5f81519050919050565b7f4e487b71000000000000000000000000000000000000000000000000000000005f52604160045260245ffd5b7f4e487b71000000000000000000000000000000000000000000000000000000005f52602260045260245ffd5b5f60028204905060018216806100e357607f821691505b6020821081036100f6576100f561009f565b5b50919050565b5f819050815f5260205f209050919050565b5f6020601f8301049050919050565b5f82821b905092915050565b5f600883026101587fffffffffffffffffffffffffffffffffffffffffffffffffffffffffffffffff8261011d565b610162868361011d565b95508019841693508086168417925050509392505050565b5f819050919050565b5f819050919050565b5f6101a66101a161019c8461017a565b610183565b61017a565b9050919050565b5f819050919050565b6101bf8361018c565b6101d36101cb826101ad565b848454610129565b825550505050565b5f90565b6101e76101db565b6101f28184846101b6565b505050565b5b818110156102155761020a5f826101df565b6001810190506101f8565b5050565b601f82111561025a5761022b816100fc565b6102348461010e565b81016020851015610243578190505b61025761024f8561010e565b8301826101f7565b50505b505050565b5f82821c905092915050565b5f61027a5f198460080261025f565b1980831691505092915050565b5f610292838361026b565b9150826002028217905092915050565b6102ab82610068565b67ffffffffffffffff8111156102c4576102c3610072565b5b6102ce82546100cc565b6102d9828285610219565b5f60209050601f83116001811461030a575f84156102f8578287015190505b6103028582610287565b865550610369565b601f198416610318866100fc565b5f5b8281101561033f5784890151825560018201915060208501945060208101905061031a565b8683101561035c5784890151610358601f89168261026b565b8355505b6001600288020188555050505b505050505050565b6102d78061037e5f395ff3fe608060405234801561000f575f80fd5b506004361061004a575f3560e01c806306fdde031461004e5780631151fad81461006c57806347375d2b1461008a57806374d47d20146100a8575b5f80fd5b6100566100c6565b60405161006391906101f3565b60405180910390f35b610074610152565b604051610081919061022b565b60405180910390f35b610092610157565b60405161009f919061022b565b60405180910390f35b6100b0610160565b6040516100bd919061022b565b60405180910390f35b600380546100d390610271565b80601f01602080910402602001604051908101604052809291908181526020018280546100ff90610271565b801561014a5780601f106101215761010080835404028352916020019161014a565b820191905f5260205f20905b81548152906001019060200180831161012d57829003601f168201915b505050505081565b5f5481565b5f600254905090565b5f600154905090565b5f81519050919050565b5f82825260208201905092915050565b5f5b838110156101a0578082015181840152602081019050610185565b5f8484015250505050565b5f601f19601f8301169050919050565b5f6101c582610169565b6101cf8185610173565b93506101df818560208601610183565b6101e8816101ab565b840191505092915050565b5f6020820190508181035f83015261020b81846101bb565b905092915050565b5f819050919050565b61022581610213565b82525050565b5f60208201905061023e5f83018461021c565b92915050565b7f4e487b71000000000000000000000000000000000000000000000000000000005f52602260045260245ffd5b5f600282049050600182168061028857607f821691505b60208210810361029b5761029a610244565b5b5091905056fea264697066735822122044f0e4127a7a4ddd56ae9a45a5ebe0b34eb593f256cc8ece2d256c2fad46e82264736f6c63430008140033",
  "immutableReferences": {},
  "source": "// SPDX-License-Identifier: MIT\npragma solidity >=0.4.22 <0.9.0;\n\n// 1. Local Variable\n// Local variables are declared within a function and are only accessible within that function. \n// Their scope is limited, and their lifetime ends when the function execution is completed.\n\ncontract LocalVariableExample {\n  function getDouble(uint value) public pure returns (uint) \n  {\n    uint doubleValue = value * 2;\n    return doubleValue;\n  }\n}\n\n\n// 2. State Variable\n// State variables are declared at the contract level and represent the contracts state on the blockchain. \n// They are stored on the Ethereum network and are accessible within the entire contract.\n\ncontract StateVariableExample {\n  uint public count = 0;\n  function increment() public \n  {\n    count += 1;\n  }\n}\n\n\n// 3. Global Variable\n// Global variables are special variables provided by the Solidity language. \n// They are available throughout the contract and provide information about the blockchain, transaction, and execution context.\n\ncontract GlobalVariableExample {\n  event SenderAndValue(address sender, uint value);\n  function getSenderAndValue() public payable \n  {\n    address sender = msg.sender;\n    uint value = msg.value;\n    emit SenderAndValue(sender, value);\n  }\n}\n\n// Variable Scope\n// There are three types of variable scopes in Solidity:\n// Public : Public variables are accessible from within the contract and can be accessed from external contracts as well. Solidity automatically generates a getter function for public state variables.\n// Private : Private variables are only accessible within the contract they are defined in. They are not accessible from derived contracts or external contracts.\n// internal : Internal variables are accessible within the contract they are defined in and derived from contracts. They are not accessible from external contracts.\n\n\ncontract VariableScopeExample {\n  uint public publicVar = 1;\n  uint private privateVar = 2;\n  uint internal internalVar = 3;\n  string public name =\"Gulsher\";\n  \n  function getPrivateVar() public view returns (uint) \n  {\n    return privateVar;\n  }\n}\n  \ncontract DerivedContract is VariableScopeExample {\n  function getInternalVar() public view returns (uint) \n  {\n    return internalVar;\n  }\n}",
  "sourcePath": "/Users/gulsherkhan/Desktop/solidity_prog/contracts/VariableTypes.sol",
  "compiler": {
    "name": "solc",
    "version": "0.8.20+commit.a1b79de6.Emscripten.clang"
  },
  "schemaVersion": "3.4.14",
  "updatedAt": "2023-07-25T07:21:01.708Z",
  "devdoc": {
    "kind": "dev",
    "methods": {},
    "version": 1
  },
  "userdoc": {
    "kind": "user",
    "methods": {},
    "version": 1
  }
}