{
  "contractName": "GlobalVariableExample",
  "abi": [
    {
      "anonymous": false,
      "inputs": [
        {
          "indexed": false,
          "internalType": "address",
          "name": "sender",
          "type": "address"
        },
        {
          "indexed": false,
          "internalType": "uint256",
          "name": "value",
          "type": "uint256"
        }
      ],
      "name": "SenderAndValue",
      "type": "event"
    },
    {
      "inputs": [],
      "name": "getSenderAndValue",
      "outputs": [],
      "stateMutability": "payable",
      "type": "function"
    }
  ],
  "bytecode": "0x608060405234801561000f575f80fd5b506101148061001d5f395ff3fe608060405260043610601b575f3560e01c8063cbba9fc614601f575b5f80fd5b60256027565b005b5f3390505f3490507f10857d045a27a5cf79083037358794877bfd1e0c5b01ec64d1c71c19decc60368282604051605e92919060bb565b60405180910390a15050565b5f73ffffffffffffffffffffffffffffffffffffffff82169050919050565b5f609182606a565b9050919050565b609f816089565b82525050565b5f819050919050565b60b58160a5565b82525050565b5f60408201905060cc5f8301856098565b60d7602083018460ae565b939250505056fea264697066735822122007fa50bcf7e568ad320b3ba2eae2dc4973388aff9a055d741b4d7a44f8c5194764736f6c63430008140033",
  "immutableReferences": {},
  "source": "// SPDX-License-Identifier: MIT\npragma solidity >=0.4.22 <0.9.0;\n\n// 1. Local Variable\n// Local variables are declared within a function and are only accessible within that function. \n// Their scope is limited, and their lifetime ends when the function execution is completed.\n\ncontract LocalVariableExample {\n  function getDouble(uint value) public pure returns (uint) \n  {\n    uint doubleValue = value * 2;\n    return doubleValue;\n  }\n}\n\n\n// 2. State Variable\n// State variables are declared at the contract level and represent the contract’s state on the blockchain. \n// They are stored on the Ethereum network and are accessible within the entire contract.\n\ncontract StateVariableExample {\n  uint public count = 0;\n  function increment() public \n  {\n    count += 1;\n  }\n}\n\n\n// 3. Global Variable\n// Global variables are special variables provided by the Solidity language. \n// They are available throughout the contract and provide information about the blockchain, transaction, and execution context.\n\ncontract GlobalVariableExample {\n  event SenderAndValue(address sender, uint value);\n  function getSenderAndValue() public payable \n  {\n    address sender = msg.sender;\n    uint value = msg.value;\n    emit SenderAndValue(sender, value);\n  }\n}\n\n// Variable Scope\n// There are three types of variable scopes in Solidity:\n// Public : Public variables are accessible from within the contract and can be accessed from external contracts as well. Solidity automatically generates a getter function for public state variables.\n// Private : Private variables are only accessible within the contract they are defined in. They are not accessible from derived contracts or external contracts.\n// internal : Internal variables are accessible within the contract they are defined in and derived from contracts. They are not accessible from external contracts.\n\n\ncontract VariableScopeExample {\n  uint public publicVar = 1;\n  uint private privateVar = 2;\n  uint internal internalVar = 3;\n  string public name =\"Gulsher\";\n  \n  function getPrivateVar() public view returns (uint) \n  {\n    return privateVar;\n  }\n}\n  \ncontract DerivedContract is VariableScopeExample {\n  function getInternalVar() public view returns (uint) \n  {\n    return internalVar;\n  }\n}",
  "sourcePath": "/Users/gulsherkhan/Desktop/solidity_prog/contracts/VariableTypes.sol",
  "compiler": {
    "name": "solc",
    "version": "0.8.20+commit.a1b79de6.Emscripten.clang"
  },
  "schemaVersion": "3.4.14",
  "updatedAt": "2023-08-01T19:13:11.857Z",
  "devdoc": {
    "kind": "dev",
    "methods": {},
    "version": 1
  },
  "userdoc": {
    "kind": "user",
    "methods": {},
    "version": 1
  }
}