{
  "contractName": "IfElse",
  "abi": [
    {
      "inputs": [],
      "name": "even",
      "outputs": [
        {
          "internalType": "bool",
          "name": "",
          "type": "bool"
        }
      ],
      "stateMutability": "view",
      "type": "function"
    },
    {
      "inputs": [],
      "name": "i",
      "outputs": [
        {
          "internalType": "uint256",
          "name": "",
          "type": "uint256"
        }
      ],
      "stateMutability": "view",
      "type": "function"
    },
    {
      "inputs": [],
      "name": "checkEvenOdd",
      "outputs": [
        {
          "internalType": "bool",
          "name": "",
          "type": "bool"
        }
      ],
      "stateMutability": "nonpayable",
      "type": "function"
    }
  ],
  "bytecode": "0x6080604052600a5f55348015610013575f80fd5b5061020c806100215f395ff3fe608060405234801561000f575f80fd5b506004361061003f575f3560e01c80632863a17d14610043578063e5aa3d5814610061578063e86c967c1461007f575b5f80fd5b61004b61009d565b604051610058919061012f565b60405180910390f35b6100696100af565b6040516100769190610160565b60405180910390f35b6100876100b4565b604051610094919061012f565b60405180910390f35b60015f9054906101000a900460ff1681565b5f5481565b5f8060025f546100c491906101a6565b036100e7576001805f6101000a81548160ff021916908315150217905550610101565b5f60015f6101000a81548160ff0219169083151502179055505b60015f9054906101000a900460ff16905090565b5f8115159050919050565b61012981610115565b82525050565b5f6020820190506101425f830184610120565b92915050565b5f819050919050565b61015a81610148565b82525050565b5f6020820190506101735f830184610151565b92915050565b7f4e487b71000000000000000000000000000000000000000000000000000000005f52601260045260245ffd5b5f6101b082610148565b91506101bb83610148565b9250826101cb576101ca610179565b5b82820690509291505056fea2646970667358221220b61b8e42aa8b7d8bb37865f9d0f589f001f76d83be9fa9e08cebf6a83a1a9d7364736f6c63430008140033",
  "immutableReferences": {},
  "source": "// SPDX-License-Identifier: MIT\npragma solidity >=0.4.22 <0.9.0;\n\ncontract ControlFlow {\n    uint[] public data;\n\n    function iteration() public returns (uint[] memory) {\n        for (uint i = 0; i < 5; i++) {\n            data.push(i);\n        }\n        return data;\n    }\n}\n\ncontract IfElse {\n    uint public i = 10;\n    bool public even;\n\n    function checkEvenOdd() public returns (bool) {\n        if (i % 2 == 0) {\n            even = true;\n        } else {\n            even = false;\n        }\n        return even;\n    }\n}\n\ncontract BreakContinue {\n    uint[] public data;\n    uint8 j = 0;\n\n    function breakFun() public returns (uint[] memory) {\n        for (uint8 i = 0; i < 5; i++) {\n            if (i == 3) {\n                break;\n            }\n            data.push(i);\n        }\n        return data;\n    }\n\n    function continueFun() public returns (uint[] memory) {\n        for (uint i = 0; i < 5; i++) {\n            if (i == 3) {\n                continue;\n            }\n            data.push(i);\n        }\n        return data;\n    }\n}\n",
  "sourcePath": "/Users/gulsherkhan/Desktop/solidity_prog/contracts/ControlFlow.sol",
  "compiler": {
    "name": "solc",
    "version": "0.8.20+commit.a1b79de6.Emscripten.clang"
  },
  "schemaVersion": "3.4.14",
  "updatedAt": "2023-08-01T19:13:11.852Z",
  "devdoc": {
    "kind": "dev",
    "methods": {},
    "version": 1
  },
  "userdoc": {
    "kind": "user",
    "methods": {},
    "version": 1
  }
}