{
  "contractName": "LocalVariableExample",
  "abi": [
    {
      "inputs": [
        {
          "internalType": "uint256",
          "name": "value",
          "type": "uint256"
        }
      ],
      "name": "getDouble",
      "outputs": [
        {
          "internalType": "uint256",
          "name": "",
          "type": "uint256"
        }
      ],
      "stateMutability": "pure",
      "type": "function"
    }
  ],
  "bytecode": "0x608060405234801561000f575f80fd5b506101a58061001d5f395ff3fe608060405234801561000f575f80fd5b5060043610610029575f3560e01c8063688755701461002d575b5f80fd5b610047600480360381019061004291906100ae565b61005d565b60405161005491906100e8565b60405180910390f35b5f8060028361006c919061012e565b905080915050919050565b5f80fd5b5f819050919050565b61008d8161007b565b8114610097575f80fd5b50565b5f813590506100a881610084565b92915050565b5f602082840312156100c3576100c2610077565b5b5f6100d08482850161009a565b91505092915050565b6100e28161007b565b82525050565b5f6020820190506100fb5f8301846100d9565b92915050565b7f4e487b71000000000000000000000000000000000000000000000000000000005f52601160045260245ffd5b5f6101388261007b565b91506101438361007b565b92508282026101518161007b565b9150828204841483151761016857610167610101565b5b509291505056fea2646970667358221220f61e8e2aef47a08edff060ca03b27760844b2c0fec0e61f506c3f9c688f797d364736f6c63430008140033",
  "immutableReferences": {},
  "source": "// SPDX-License-Identifier: MIT\npragma solidity >=0.4.22 <0.9.0;\n\n// 1. Local Variable\n// Local variables are declared within a function and are only accessible within that function. \n// Their scope is limited, and their lifetime ends when the function execution is completed.\n\ncontract LocalVariableExample {\n  function getDouble(uint value) public pure returns (uint) \n  {\n    uint doubleValue = value * 2;\n    return doubleValue;\n  }\n}\n\n\n// 2. State Variable\n// State variables are declared at the contract level and represent the contract’s state on the blockchain. \n// They are stored on the Ethereum network and are accessible within the entire contract.\n\ncontract StateVariableExample {\n  uint public count = 0;\n  function increment() public \n  {\n    count += 1;\n  }\n}\n\n\n// 3. Global Variable\n// Global variables are special variables provided by the Solidity language. \n// They are available throughout the contract and provide information about the blockchain, transaction, and execution context.\n\ncontract GlobalVariableExample {\n  event SenderAndValue(address sender, uint value);\n  function getSenderAndValue() public payable \n  {\n    address sender = msg.sender;\n    uint value = msg.value;\n    emit SenderAndValue(sender, value);\n  }\n}\n\n// Variable Scope\n// There are three types of variable scopes in Solidity:\n// Public : Public variables are accessible from within the contract and can be accessed from external contracts as well. Solidity automatically generates a getter function for public state variables.\n// Private : Private variables are only accessible within the contract they are defined in. They are not accessible from derived contracts or external contracts.\n// internal : Internal variables are accessible within the contract they are defined in and derived from contracts. They are not accessible from external contracts.\n\n\ncontract VariableScopeExample {\n  uint public publicVar = 1;\n  uint private privateVar = 2;\n  uint internal internalVar = 3;\n  string public name =\"Gulsher\";\n  \n  function getPrivateVar() public view returns (uint) \n  {\n    return privateVar;\n  }\n}\n  \ncontract DerivedContract is VariableScopeExample {\n  function getInternalVar() public view returns (uint) \n  {\n    return internalVar;\n  }\n}",
  "sourcePath": "/Users/gulsherkhan/Desktop/solidity_prog/contracts/VariableTypes.sol",
  "compiler": {
    "name": "solc",
    "version": "0.8.20+commit.a1b79de6.Emscripten.clang"
  },
  "schemaVersion": "3.4.14",
  "updatedAt": "2023-07-25T07:21:01.710Z",
  "devdoc": {
    "kind": "dev",
    "methods": {},
    "version": 1
  },
  "userdoc": {
    "kind": "user",
    "methods": {},
    "version": 1
  }
}