{
  "contractName": "Lottery",
  "abi": [
    {
      "inputs": [],
      "stateMutability": "nonpayable",
      "type": "constructor"
    },
    {
      "inputs": [],
      "name": "manager",
      "outputs": [
        {
          "internalType": "address",
          "name": "",
          "type": "address"
        }
      ],
      "stateMutability": "view",
      "type": "function"
    },
    {
      "inputs": [
        {
          "internalType": "uint256",
          "name": "",
          "type": "uint256"
        }
      ],
      "name": "participants",
      "outputs": [
        {
          "internalType": "address payable",
          "name": "",
          "type": "address"
        }
      ],
      "stateMutability": "view",
      "type": "function"
    },
    {
      "stateMutability": "payable",
      "type": "receive"
    },
    {
      "inputs": [],
      "name": "getBalance",
      "outputs": [
        {
          "internalType": "uint256",
          "name": "",
          "type": "uint256"
        }
      ],
      "stateMutability": "view",
      "type": "function"
    },
    {
      "inputs": [],
      "name": "checkParticipants",
      "outputs": [
        {
          "internalType": "uint256",
          "name": "",
          "type": "uint256"
        }
      ],
      "stateMutability": "view",
      "type": "function"
    },
    {
      "inputs": [],
      "name": "random",
      "outputs": [
        {
          "internalType": "uint256",
          "name": "",
          "type": "uint256"
        }
      ],
      "stateMutability": "view",
      "type": "function"
    },
    {
      "inputs": [],
      "name": "selectWinner",
      "outputs": [],
      "stateMutability": "nonpayable",
      "type": "function"
    }
  ],
  "bytecode": "0x608060405234801561000f575f80fd5b50335f806101000a81548173ffffffffffffffffffffffffffffffffffffffff021916908373ffffffffffffffffffffffffffffffffffffffff1602179055506108368061005c5f395ff3fe608060405260043610610058575f3560e01c806312065fe01461010557806333a99e041461012f57806335c1d34914610145578063481c6a75146101815780635ec01e4d146101ab5780638e943c8b146101d557610101565b3661010157600134146100a0576040517f08c379a0000000000000000000000000000000000000000000000000000000008152600401610097906105c5565b60405180910390fd5b600133908060018154018082558091505060019003905f5260205f20015f9091909190916101000a81548173ffffffffffffffffffffffffffffffffffffffff021916908373ffffffffffffffffffffffffffffffffffffffff1602179055005b5f80fd5b348015610110575f80fd5b506101196101ff565b60405161012691906105fb565b60405180910390f35b34801561013a575f80fd5b5061014361025d565b005b348015610150575f80fd5b5061016b60048036038101906101669190610642565b6103d2565b60405161017891906106ac565b60405180910390f35b34801561018c575f80fd5b5061019561040d565b6040516101a291906106e5565b60405180910390f35b3480156101b6575f80fd5b506101bf610430565b6040516101cc91906105fb565b60405180910390f35b3480156101e0575f80fd5b506101e9610466565b6040516101f691906105fb565b60405180910390f35b5f805f9054906101000a900473ffffffffffffffffffffffffffffffffffffffff1673ffffffffffffffffffffffffffffffffffffffff163373ffffffffffffffffffffffffffffffffffffffff1614610257575f80fd5b47905090565b5f8054906101000a900473ffffffffffffffffffffffffffffffffffffffff1673ffffffffffffffffffffffffffffffffffffffff163373ffffffffffffffffffffffffffffffffffffffff16146102b3575f80fd5b600360018054905010156102c5575f80fd5b5f6102ce610430565b90505f80600180549050836102e3919061072b565b9050600181815481106102f9576102f861075b565b5b905f5260205f20015f9054906101000a900473ffffffffffffffffffffffffffffffffffffffff1691508173ffffffffffffffffffffffffffffffffffffffff166108fc6103456101ff565b90811502906040515f60405180830381858888f1935050505015801561036d573d5f803e3d5ffd5b505f67ffffffffffffffff81111561038857610387610788565b5b6040519080825280602002602001820160405280156103b65781602001602082028036833780820191505090505b50600190805190602001906103cc9291906104c9565b50505050565b600181815481106103e1575f80fd5b905f5260205f20015f915054906101000a900473ffffffffffffffffffffffffffffffffffffffff1681565b5f8054906101000a900473ffffffffffffffffffffffffffffffffffffffff1681565b5f426001805490506040516020016104499291906107d5565b604051602081830303815290604052805190602001205f1c905090565b5f805f9054906101000a900473ffffffffffffffffffffffffffffffffffffffff1673ffffffffffffffffffffffffffffffffffffffff163373ffffffffffffffffffffffffffffffffffffffff16146104be575f80fd5b600180549050905090565b828054828255905f5260205f2090810192821561053f579160200282015b8281111561053e578251825f6101000a81548173ffffffffffffffffffffffffffffffffffffffff021916908373ffffffffffffffffffffffffffffffffffffffff160217905550916020019190600101906104e7565b5b50905061054c9190610550565b5090565b5b80821115610567575f815f905550600101610551565b5090565b5f82825260208201905092915050565b7f496e73756666696369656e742065746865722073656e740000000000000000005f82015250565b5f6105af60178361056b565b91506105ba8261057b565b602082019050919050565b5f6020820190508181035f8301526105dc816105a3565b9050919050565b5f819050919050565b6105f5816105e3565b82525050565b5f60208201905061060e5f8301846105ec565b92915050565b5f80fd5b610621816105e3565b811461062b575f80fd5b50565b5f8135905061063c81610618565b92915050565b5f6020828403121561065757610656610614565b5b5f6106648482850161062e565b91505092915050565b5f73ffffffffffffffffffffffffffffffffffffffff82169050919050565b5f6106968261066d565b9050919050565b6106a68161068c565b82525050565b5f6020820190506106bf5f83018461069d565b92915050565b5f6106cf8261066d565b9050919050565b6106df816106c5565b82525050565b5f6020820190506106f85f8301846106d6565b92915050565b7f4e487b71000000000000000000000000000000000000000000000000000000005f52601260045260245ffd5b5f610735826105e3565b9150610740836105e3565b9250826107505761074f6106fe565b5b828206905092915050565b7f4e487b71000000000000000000000000000000000000000000000000000000005f52603260045260245ffd5b7f4e487b71000000000000000000000000000000000000000000000000000000005f52604160045260245ffd5b5f819050919050565b6107cf6107ca826105e3565b6107b5565b82525050565b5f6107e082856107be565b6020820191506107f082846107be565b602082019150819050939250505056fea2646970667358221220cbd6bcb0a312361f40ff41231ac0fffd763dc6d41736eb332ae2a67d9e6d9bd864736f6c63430008140033",
  "immutableReferences": {},
  "source": "// SPDX-License-Identifier: MIT\npragma solidity >=0.4.22 <0.9.0;\n\ncontract Lottery {\n    address public manager;\n    address payable[] public participants;\n\n    constructor(){\n        manager = msg.sender;\n    }\n\n     receive() external payable {\n        require(msg.value == 0.000000000000000001 ether, \"Insufficient ether sent\");\n         participants.push(payable(msg.sender));\n     }\n\n    function getBalance() public view returns (uint){\n        require(msg.sender == manager);\n        return address(this).balance;\n    }\n\n    function checkParticipants() public  view returns (uint){\n        require(msg.sender == manager);\n        return participants.length;\n    }\n\n    function random() public view returns(uint){\n        return uint256(keccak256(abi.encodePacked(block.timestamp, participants.length)));\n    }\n\n    function selectWinner() public{\n        require(msg.sender == manager);\n        require(participants.length>=3);\n        uint r = random();\n        address payable winner;\n        uint index = r % participants.length;\n        winner = participants[index];\n        winner.transfer(getBalance());\n        participants = new address payable[](0);\n    }\n}",
  "sourcePath": "/Users/gulsherkhan/Desktop/solidity_prog/contracts/Lottery.sol",
  "compiler": {
    "name": "solc",
    "version": "0.8.20+commit.a1b79de6.Emscripten.clang"
  },
  "schemaVersion": "3.4.14",
  "updatedAt": "2023-08-01T19:30:36.562Z",
  "devdoc": {
    "kind": "dev",
    "methods": {},
    "version": 1
  },
  "userdoc": {
    "kind": "user",
    "methods": {},
    "version": 1
  }
}