{
  "contractName": "Operators",
  "abi": [
    {
      "inputs": [],
      "name": "a",
      "outputs": [
        {
          "internalType": "uint16",
          "name": "",
          "type": "uint16"
        }
      ],
      "stateMutability": "view",
      "type": "function"
    },
    {
      "inputs": [],
      "name": "b",
      "outputs": [
        {
          "internalType": "uint16",
          "name": "",
          "type": "uint16"
        }
      ],
      "stateMutability": "view",
      "type": "function"
    },
    {
      "inputs": [],
      "name": "dec",
      "outputs": [
        {
          "internalType": "uint256",
          "name": "",
          "type": "uint256"
        }
      ],
      "stateMutability": "view",
      "type": "function"
    },
    {
      "inputs": [],
      "name": "diff",
      "outputs": [
        {
          "internalType": "uint256",
          "name": "",
          "type": "uint256"
        }
      ],
      "stateMutability": "view",
      "type": "function"
    },
    {
      "inputs": [],
      "name": "div",
      "outputs": [
        {
          "internalType": "uint256",
          "name": "",
          "type": "uint256"
        }
      ],
      "stateMutability": "view",
      "type": "function"
    },
    {
      "inputs": [],
      "name": "inc",
      "outputs": [
        {
          "internalType": "uint256",
          "name": "",
          "type": "uint256"
        }
      ],
      "stateMutability": "view",
      "type": "function"
    },
    {
      "inputs": [],
      "name": "mod",
      "outputs": [
        {
          "internalType": "uint256",
          "name": "",
          "type": "uint256"
        }
      ],
      "stateMutability": "view",
      "type": "function"
    },
    {
      "inputs": [],
      "name": "mul",
      "outputs": [
        {
          "internalType": "uint256",
          "name": "",
          "type": "uint256"
        }
      ],
      "stateMutability": "view",
      "type": "function"
    },
    {
      "inputs": [],
      "name": "sum",
      "outputs": [
        {
          "internalType": "uint256",
          "name": "",
          "type": "uint256"
        }
      ],
      "stateMutability": "view",
      "type": "function"
    }
  ],
  "bytecode": "0x608060405260145f806101000a81548161ffff021916908361ffff160217905550600a5f60026101000a81548161ffff021916908361ffff1602179055505f60029054906101000a900461ffff165f8054906101000a900461ffff1661006591906101e8565b61ffff166001555f60029054906101000a900461ffff165f8054906101000a900461ffff16610094919061021d565b61ffff166002555f60029054906101000a900461ffff165f8054906101000a900461ffff166100c39190610252565b61ffff166003555f60029054906101000a900461ffff165f8054906101000a900461ffff166100f291906102bb565b61ffff166004555f60029054906101000a900461ffff165f8054906101000a900461ffff1661012191906102eb565b61ffff166005555f600281819054906101000a900461ffff166101439061031b565b91906101000a81548161ffff021916908361ffff160217905561ffff166006555f8081819054906101000a900461ffff1661017d90610342565b91906101000a81548161ffff021916908361ffff160217905561ffff166007553480156101a8575f80fd5b5061036b565b5f61ffff82169050919050565b7f4e487b71000000000000000000000000000000000000000000000000000000005f52601160045260245ffd5b5f6101f2826101ae565b91506101fd836101ae565b9250828201905061ffff811115610217576102166101bb565b5b92915050565b5f610227826101ae565b9150610232836101ae565b9250828203905061ffff81111561024c5761024b6101bb565b5b92915050565b5f61025c826101ae565b9150610267836101ae565b9250828202610275816101ae565b9150808214610287576102866101bb565b5b5092915050565b7f4e487b71000000000000000000000000000000000000000000000000000000005f52601260045260245ffd5b5f6102c5826101ae565b91506102d0836101ae565b9250826102e0576102df61028e565b5b828204905092915050565b5f6102f5826101ae565b9150610300836101ae565b9250826103105761030f61028e565b5b828206905092915050565b5f610325826101ae565b91505f8203610337576103366101bb565b5b600182039050919050565b5f61034c826101ae565b915061ffff82036103605761035f6101bb565b5b600182019050919050565b61028d806103785f395ff3fe608060405234801561000f575f80fd5b5060043610610091575f3560e01c806358931c461161006457806358931c461461010d578063853255cc1461012b578063a0d7afb714610149578063b3bcfa8214610167578063f9fa48c31461018557610091565b80630dbe671f146100955780632986e054146100b3578063371303c0146100d15780634df7e3d0146100ef575b5f80fd5b61009d6101a3565b6040516100aa919061020d565b60405180910390f35b6100bb6101b4565b6040516100c8919061023e565b60405180910390f35b6100d96101ba565b6040516100e6919061023e565b60405180910390f35b6100f76101c0565b604051610104919061020d565b60405180910390f35b6101156101d3565b604051610122919061023e565b60405180910390f35b6101336101d9565b604051610140919061023e565b60405180910390f35b6101516101df565b60405161015e919061023e565b60405180910390f35b61016f6101e5565b60405161017c919061023e565b60405180910390f35b61018d6101eb565b60405161019a919061023e565b60405180910390f35b5f8054906101000a900461ffff1681565b60055481565b60075481565b5f60029054906101000a900461ffff1681565b60035481565b60015481565b60025481565b60065481565b60045481565b5f61ffff82169050919050565b610207816101f1565b82525050565b5f6020820190506102205f8301846101fe565b92915050565b5f819050919050565b61023881610226565b82525050565b5f6020820190506102515f83018461022f565b9291505056fea2646970667358221220ab478dcee221b1adcc990e3d5cf08837a28960cb6ad7dd8b06c9183aab1ad74f64736f6c63430008140033",
  "immutableReferences": {},
  "source": "// SPDX-License-Identifier: MIT\npragma solidity >=0.4.22 <0.9.0;\n\ncontract Operators {\n    /* \n    their are 6 types of opeartors \n    1. Arithmetic Operators\n    2. Relational Operators\n    3. Logical Operators\n    4. Bitwise Operators\n    5. Assignment operators\n    6. Conditional Operator\n    */\n      // Initializing variables\n    uint16 public a = 20;\n    uint16 public b = 10;\n \n    // Initializing a variable\n    // with sum\n    uint public sum = a + b;\n \n    // Initializing a variable\n    // with the difference\n    uint public diff = a - b;\n \n    // Initializing a variable\n    // with product\n    uint public mul = a * b;\n \n    // Initializing a variable\n    // with quotient\n    uint public div = a / b;\n \n    // Initializing a variable\n    // with modulus\n    uint public mod = a % b;\n \n    // Initializing a variable\n    // decrement value\n    uint public dec = --b;\n \n    // Initializing a variable\n    // with increment value\n    uint public inc = ++a;\n}\n",
  "sourcePath": "/Users/gulsherkhan/Desktop/solidity_prog/contracts/Operators.sol",
  "compiler": {
    "name": "solc",
    "version": "0.8.20+commit.a1b79de6.Emscripten.clang"
  },
  "schemaVersion": "3.4.14",
  "updatedAt": "2023-07-26T10:13:34.030Z",
  "devdoc": {
    "kind": "dev",
    "methods": {},
    "version": 1
  },
  "userdoc": {
    "kind": "user",
    "methods": {},
    "version": 1
  }
}