{
  "contractName": "StateVariableExample",
  "abi": [
    {
      "inputs": [],
      "name": "count",
      "outputs": [
        {
          "internalType": "uint256",
          "name": "",
          "type": "uint256"
        }
      ],
      "stateMutability": "view",
      "type": "function"
    },
    {
      "inputs": [],
      "name": "increment",
      "outputs": [],
      "stateMutability": "nonpayable",
      "type": "function"
    }
  ],
  "bytecode": "0x60806040525f8055348015610012575f80fd5b50610146806100205f395ff3fe608060405234801561000f575f80fd5b5060043610610034575f3560e01c806306661abd14610038578063d09de08a14610056575b5f80fd5b610040610060565b60405161004d9190610097565b60405180910390f35b61005e610065565b005b5f5481565b60015f8082825461007691906100dd565b92505081905550565b5f819050919050565b6100918161007f565b82525050565b5f6020820190506100aa5f830184610088565b92915050565b7f4e487b71000000000000000000000000000000000000000000000000000000005f52601160045260245ffd5b5f6100e78261007f565b91506100f28361007f565b925082820190508082111561010a576101096100b0565b5b9291505056fea2646970667358221220c56ceda952e50ac19032b1f4a2f1cbe45ed524cdacdbd45c3608fc96fabc530364736f6c63430008140033",
  "immutableReferences": {},
  "source": "// SPDX-License-Identifier: MIT\npragma solidity >=0.4.22 <0.9.0;\n\n// 1. Local Variable\n// Local variables are declared within a function and are only accessible within that function. \n// Their scope is limited, and their lifetime ends when the function execution is completed.\n\ncontract LocalVariableExample {\n  function getDouble(uint value) public pure returns (uint) \n  {\n    uint doubleValue = value * 2;\n    return doubleValue;\n  }\n}\n\n\n// 2. State Variable\n// State variables are declared at the contract level and represent the contract’s state on the blockchain. \n// They are stored on the Ethereum network and are accessible within the entire contract.\n\ncontract StateVariableExample {\n  uint public count = 0;\n  function increment() public \n  {\n    count += 1;\n  }\n}\n\n\n// 3. Global Variable\n// Global variables are special variables provided by the Solidity language. \n// They are available throughout the contract and provide information about the blockchain, transaction, and execution context.\n\ncontract GlobalVariableExample {\n  event SenderAndValue(address sender, uint value);\n  function getSenderAndValue() public payable \n  {\n    address sender = msg.sender;\n    uint value = msg.value;\n    emit SenderAndValue(sender, value);\n  }\n}\n\n// Variable Scope\n// There are three types of variable scopes in Solidity:\n// Public : Public variables are accessible from within the contract and can be accessed from external contracts as well. Solidity automatically generates a getter function for public state variables.\n// Private : Private variables are only accessible within the contract they are defined in. They are not accessible from derived contracts or external contracts.\n// internal : Internal variables are accessible within the contract they are defined in and derived from contracts. They are not accessible from external contracts.\n\n\ncontract VariableScopeExample {\n  uint public publicVar = 1;\n  uint private privateVar = 2;\n  uint internal internalVar = 3;\n  string public name =\"Gulsher\";\n  \n  function getPrivateVar() public view returns (uint) \n  {\n    return privateVar;\n  }\n}\n  \ncontract DerivedContract is VariableScopeExample {\n  function getInternalVar() public view returns (uint) \n  {\n    return internalVar;\n  }\n}",
  "sourcePath": "/Users/gulsherkhan/Desktop/solidity_prog/contracts/VariableTypes.sol",
  "compiler": {
    "name": "solc",
    "version": "0.8.20+commit.a1b79de6.Emscripten.clang"
  },
  "schemaVersion": "3.4.14",
  "updatedAt": "2023-07-25T07:21:01.711Z",
  "devdoc": {
    "kind": "dev",
    "methods": {},
    "version": 1
  },
  "userdoc": {
    "kind": "user",
    "methods": {},
    "version": 1
  }
}